:100000000C9434000C9451000C9451000C94510049
:100010000C9451000C9451000C9451000C9451001C
:100020000C9451000C9451000C9451000C9451000C
:100030000C9451000C9451000C9451000C945100FC
:100040000C9451000C9451000C9451000C945100EC
:100050000C94510069006B006D006F00710073001B
:10006000750077007A00790011241FBECFE5D4E037
:10007000DEBFCDBF10E0A0E6B0E0E0E5F1E002C0F9
:1000800005900D92A036B107D9F720E0A0E6B0E0C8
:1000900001C01D92A036B207E1F70E9499000C94AE
:1000A000A6000C94000081B38FEF81BB92B382BB9A
:1000B00084BB95B385BB1ABA1BBA089525B32870C3
:1000C00090E08A309105B0F4FC01E65DFF4F0C949E
:1000D000A00020680FC0236E0DC024640BC02164F3
:1000E00009C0236207C0216105C0206103C0236CE1
:1000F00001C0216025BB0895C0E0DFEFD2BBDD2346
:1001000011F0DD0F01C0DFEF8C2F0E945E0095B370
:1001100088E0892785BBCF5FCA3008F0C0E02FEFA9
:1001200080E792E0215080409040E1F700C000005D
:10013000E5CF0E9453000E947C0080E090E008958B
:10014000EE0FFF1F0590F491E02D0994F894FFCF76
:00000001FF
