S015000053454E534F525F4453313330372E7372656374
S11300000C942A000C9447000C9447000C9447006D
S11300100C9447000C9447000C9447000C94470040
S11300200C9447000C9447000C9447000C94470030
S11300300C9447000C9447000C9447000C94470020
S11300400C9447000C9447000C9447000C94470010
S11300500C94470011241FBECFE5D4E0DEBFCDBF12
S113006011E0A0E6B0E0E4EEFEE002C005900D92DF
S1130070A031B107D9F721E0A0E1B1E001C01D92A0
S1130080AF31B207E1F70E9422030C9470070C947D
S1130090000011B880E280B984E086BF089594EA34
S11300A096BF20E137E203C021503109D1F006B6F2
S11300B007FEFACF91B1987F9830A9F483B984E808
S11300C086BF80E197E202C0019779F006B607FE89
S11300D0FBCF81B1887F883151F0803251F481E0C7
S11300E0089583E0089582E0089583E0089580E010
S11300F0089582E0089594EA96BF20E137E203C0B0
S113010021503109D1F006B607FEFACF91B1987F9C
S11301109031A9F483B984E886BF80E197E202C0F4
S1130120019779F006B607FEFBCF81B1887F803452
S113013051F0883451F481E0089583E0089582E019
S1130140089583E0089580E0089582E0089584E9A5
S113015086BF80E197E202C0019719F006B604FC5D
S1130160FBCF089583B984E886BF80E197E202C09B
S1130170019759F006B607FEFBCF81B1887F88321C
S113018031F0803331F481E0089583E0089580E014
S1130190089582E0089584EC86BF80E197E202C06E
S11301A0019731F006B607FEFBCF83B190E00895C6
S11301B08FEF9FEF089584E886BF80E197E202C045
S11301C0019731F006B607FEFBCF83B190E00895A6
S11301D08FEF9FEF0895CF93C82F8C600E94B200D9
S11301E085E88A95F1F700008C2F8B7F88600E9448
S11301F0B20087EC90E00197F1F700C00000CF91C6
S11302000895CF93C82F8EE40E944F008C2F0E9434
S1130210EB000E94A700CF9108950F931F93CF93F3
S1130220DF93162F082F007F90E1899FE0011124AE
S11302308EE40E944F00802F812B0E94EB008C2FB4
S1130240812B0E94EB000E94A700DF91CF911F91A8
S11302500F91089560E00E940D01089561E00E94ED
S11302600D01089581E00E942A018FE99FE0019722
S1130270F1F700C0000008952FE788E391E02150D2
S113028080409040E1F700C0000080E30E9401013B
S11302908FE097E20197F1F700C0000080E30E942D
S11302A001018BE291E00197F1F700C0000080E3C7
S11302B00E9401018BE291E00197F1F700C0000078
S11302C080E20E94010188E20E942A018CE00E94DF
S11302D02A0186E00E942A010E9432010895CF93E8
S11302E0DF93EA01603108F06FE0813049F028F0D3
S11302F0823049F0833051F00CC080E8860F0AC088
S113030080EC860F07C084E9860F04C084ED860F55
S113031001C080E80E942A0103C021960E942E0198
S113032088818111FACFDF91CF910895282F30E091
S113033035952795359527953595279535952795A1
S1130340A901440F551F220F331F220F331F220F01
S1130350331F240F351F8F70A901480F511DCA0187
S1130360089591E085FF90E0892F08951F93CF931E
S1130370DF93C82FD62F142F80ED0E944F0080E00A
S11303800E94B200812F8F770E94B2008D2F0E94AD
S1130390B2008C2F0E94B2000E94A7008FE19EE45D
S11303A00197F1F700C00000DF91CF911F910895EC
S11303B00F931F93CF93DF93082F162FD42FC22FA1
S11303C080ED0E944F0083E00E94B200802F0E94C3
S11303D0B200812F0E94B2008D2F0E94B2008C2F98
S11303E00E94B2000E94A7008FE19EE40197F1F7FA
S11303F000C00000DF91CF911F910F910895CF931A
S1130400C82F80ED0E944F008C2F0E94B20081ED16
S11304100E947B000E94CB0090931D0180931C01DD
S11304200E94CB0090931B0180931A010E94DB0071
S113043090931901809318010E94A700CF91089509
S1130440CF93C82F80ED0E944F008C2F0E94B200E2
S113045081ED0E947B000E94CB0090931701809352
S113046016010E94CB0090931501809314010E9401
S1130470CB0090931301809312010E94DB009093B0
S11304801101809310010E94A700CF910895EF926B
S1130490FF920F931F93CF93DF93CDB7DEB7689787
S11304A00FB6F894DEBF0FBECDBF7C018B019A015D
S11304B088E1E0E6F0E0DE01119601900D928A9564
S11304C0E1F7CA0183709927892B39F4CA0164E6DC
S11304D070E00E945E04892B39F4C90160E971E07F
S11304E00E945E04892B21F48DE190E09C838B8330
S11304F020E030E080E090E0A80141505109241749
S1130500350784F4F901EE0FFF1F41E050E04C0F72
S11305105D1FE40FF51F40815181840F951F2F5FEC
S11305203F4FEACF8E0D9F1D68960FB6F894DEBF3D
S11305300FBECDBFDF91CF911F910F91FF90EF9030
S113054008958F929F92AF92BF92CF92DF92EF92D3
S1130550FF920F931F93CF93DF93CDB7DEB76897C6
S11305600FB6F894DEBF0FBECDBF6A01590128E172
S1130570E8E7F0E0DE01119601900D922A95E1F78B
S11305800E9447024C01A60161E070E08DE190E019
S11305900E9447029401281B390BC901992354F482
S11305A0F50111821082F80111821082F701D182C3
S11305B0C08235C020E030E041E050E02C3031050D
S11305C004F5F901EE0FFF1F61E070E06C0F7D1F71
S11305D0E60FF71F60817181861797075CF4019617
S11305E0F50191838083F80151834083F701D1821F
S11305F0C08215C0861B970B4F5F5F4F2F5F3F4F25
S1130600DDCF81E090E0F50191838083F80191834F
S11306108083FFEFCF1ADF0AF701D182C082689688
S11306200FB6F894DEBF0FBECDBFDF91CF911F91FF
S11306300F91FF90EF90DF90CF90BF90AF909F907D
S11306408F900895CF93DF93CDB7DEB7A9970FB6F8
S1130650F894DEBF0FBECDBF8EE0E0E9F0E0DE012E
S1130660569601900D928A95E1F70E9449000E94E6
S11306703C0125E245E068E284E00E94D80140E0C4
S113068060E189E10E94B60187B38D7F87BB88B39F
S1130690826088BB80E00E94FF0183E00E94200208
S11306A0809114010E9496016C01809112010E94B4
S11306B096015C01809110010E9496014C01B19950
S11306C00FC090911E0181E0892780931E012FEFB6
S11306D032E587E0215030408040E1F700C000005F
S11306E0809118019091190186FF3BC08F71992761
S11306F020911D012F9320911C012F9320911B0108
S11307002F9320911A012F939F938F938EE990E05A
S11307109F938F938E010F5F1F4F1F930F930E9420
S11307208604A80160E080E00E946F0180911801B6
S1130730909119010E94B1010FB6F894DEBF0FBE6B
S1130740CDBF882339F04DEA50E069E080E00E9493
S11307506F012CC040EB50E069E080E00E946F0123
S113076025C08F73992720911D012F9320911C017F
S11307702F9320911B012F9320911A012F939F9364
S11307808F938EE990E09F938F938E010F5F1F4F9D
S11307901F930F930E948604A80160E080E00E94EA
S11307A06F010FB6F894DEBF0FBECDBF80911E015E
S11307B0882309F444C09E01285D3F4F79018E01CE
S11307C00A5D1F4F24503109A401B501C6010E94DE
S11307D0A1028CA19DA1009741F1E0911601F09135
S11307E017013197EE0FFF1F9E012F5F3F4FE20F5E
S11307F0F31F458956895F934F9349A54F9348A5A5
S11308004F934FA14F934EA14F939F938F9383EB9D
S113081090E09F938F933F932F930E9486040FB68B
S1130820F894DEBF0FBECDBF38C084E1E9ECF0E040
S1130830DE01119601900D928A95E1F72EC0E091A8
S11308401601F09117013197EE0FFF1FCE010196AB
S1130850E80FF91F258936893F932F9320911101C1
S11308602F93209110012F93209113012F93209106
S113087012012F93209115012F93209114012F938E
S11308802DED30E03F932F939F938F930E94860426
S11308900FB6F894DEBF0FBECDBFAE014F5F5F4F02
S11308A060E081E00E946F013FEF82E597E0315004
S11308B080409040E1F700C00000ECCE97FB072E8B
S11308C016F4009407D077FD09D00E94720407FC47
S11308D005D03EF4909581959F4F0895709561954C
S11308E07F4F0895AA1BBB1B51E107C0AA1FBB1F62
S11308F0A617B70710F0A61BB70B881F991F5A95A8
S1130900A9F780959095BC01CD010895AEE0B0E0C3
S1130910ECE8F4E00C9447070D891E8986E08C838B
S11309201A8309838FEF9FE79E838D83AE01475E11
S11309305F4F6F89788DCE0101960E94A804EF81E4
S1130940F885E00FF11F10822E96E4E00C94630703
S1130950ABE0B0E0EEEAF4E00C9439076C017B0103
S11309608A01FC0117821682838181FFCCC1CE01EA
S113097001963C01F6019381F70193FD859193FF64
S113098081917F01882309F4BAC1853239F493FD3A
S1130990859193FF81917F01853229F4B60190E01E
S11309A00E949F06E7CF912C212C312CFFE1F315F7
S11309B0D8F08B3279F038F4803279F08332A1F4B4
S11309C0232D20611DC08D3261F0803369F4232D05
S11309D0216016C0832D8260382EE32DE4603E2E04
S11309E02AC0F32DF8601DC037FC2DC020ED280F60
S11309F02A3040F08E32B9F436FC81C1232D2064B4
S1130A00322E19C036FE06C08AE0989E200D1124AD
S1130A10922E11C0EAE02E9E200D1124222EF32DD9
S1130A20F0623F2E08C08C3621F4832D8068382E66
S1130A3002C0883641F4F70193FD859193FF8191BB
S1130A407F018111B3CF982F9F7D9554933028F463
S1130A500C5F1F4F9FE399830DC0833631F08337BA
S1130A6071F0833509F059C021C0F8018081898370
S1130A700E5F1F4F88248394912C530113C02801C7
S1130A80F2E04F0E511CF801A080B18036FE03C085
S1130A90692D70E002C06FEF7FEFC5010E949406DC
S1130AA04C018201F32DFF773F2E16C0280122E06E
S1130AB0420E511CF801A080B18036FE03C0692D9E
S1130AC070E002C06FEF7FEFC5010E9489064C0100
S1130AD0F32DF0683F2E820133FC1BC0822D90E081
S1130AE088169906B0F4B60180E290E00E949F0651
S1130AF02A94F4CFF50137FC859137FE81915F018B
S1130B00B60190E00E949F0621102A9421E0821AE7
S1130B1091088114910471F7E8C0843611F0893684
S1130B2041F5F80137FE07C06081718182819381AC
S1130B300C5F1F4F08C060817181072E000C880B69
S1130B40990B0E5F1F4FF32DFF763F2E97FF09C0C1
S1130B5090958095709561957F4F8F4F9F4FF0686A
S1130B603F2E2AE030E0A3010E94DB06882E86187F
S1130B7045C0853731F4232D2F7EB22E2AE030E094
S1130B8025C0932D997FB92E8F36C1F018F488357E
S1130B9079F0B5C0803719F0883721F0B0C0E92F5B
S1130BA0E061BE2EB4FE0DC0FB2DF460BF2E09C063
S1130BB034FE0AC0292F2660B22E06C028E030E099
S1130BC005C020E130E002C020E132E0F801B7FEC8
S1130BD007C060817181828193810C5F1F4F06C0C1
S1130BE06081718180E090E00E5F1F4FA3010E943D
S1130BF0DB06882E8618FB2DFF773F2E36FE0DC0B0
S1130C00232D2E7FA22E891458F434FE0BC032FCFF
S1130C1009C0832D8E7EA82E05C0B82CA32C03C03A
S1130C20B82C01C0B92CA4FE0FC0FE01E80DF11DC3
S1130C308081803321F49A2D997EA92E09C0A2FEC9
S1130C4006C0B394B39404C08A2D867809F0B39493
S1130C50A3FC11C0A0FE06C0B21488F4280C922C88
S1130C609B180EC0B21460F4B60180E290E00E94BA
S1130C709F06B394F7CFB21418F42B1802C0982C23
S1130C80212CA4FE10C0B60180E390E00E949F06D0
S1130C90A2FE17C0A1FC03C088E790E002C088E56B
S1130CA090E0B6010CC08A2D867859F0A1FE02C0EE
S1130CB08BE201C080E2A7FC8DE2B60190E00E94C5
S1130CC09F06891438F4B60180E390E00E949F06E1
S1130CD09A94F7CF8A94F301E80DF11D8081B6014F
S1130CE090E00E949F068110F5CF222009F442CEA5
S1130CF0B60180E290E00E949F062A94F6CFF601A6
S1130D008681978102C08FEF9FEF2B96E2E10C94CE
S1130D105507FC010590615070400110D8F780958B
S1130D2090958E0F9F1F0895FC01615070400190B3
S1130D300110D8F7809590958E0F9F1F08950F93FB
S1130D401F93CF93DF93FB01238121FD03C08FEF1A
S1130D509FEF2CC022FF16C0468157812481358124
S1130D604217530744F4A081B1819D012F5F3F4F87
S1130D70318320838C93268137812F5F3F4F3783C4
S1130D80268314C08B01EC01FB010084F185E02D66
S1130D900995892BE1F6D80116968D919C911797A8
S1130DA0019617969C938E931697CE01DF91CF915F
S1130DB01F910F910895FA01AA27283051F120318B
S1130DC081F1E8946F936E7F6E5F7F4F8F4F9F4FDB
S1130DD0AF4FB1E03ED0B4E03CD0670F781F891F1D
S1130DE09A1FA11D680F791F8A1F911DA11D6A0FEB
S1130DF0711D811D911DA11D20D009F468943F919E
S1130E002AE0269F11243019305D3193DEF6CF019C
S1130E100895462F4770405D4193B3E00FD0C9F762
S1130E20F6CF462F4F70405D4A3318F0495D31FDCF
S1130E304052419302D0A9F7EACFB4E0A695979522
S1130E40879577956795BA95C9F7009761057105F8
S1130E5008959B01AC010A2E069457954795379542
S1130E602795BA95C9F7620F731F841F951FA01D9C
S1130E7008952F923F924F925F926F927F928F923A
S1130E809F92AF92BF92CF92DF92EF92FF920F9315
S1130E901F93CF93DF93CDB7DEB7CA1BDB0B0FB61F
S1130EA0F894DEBF0FBECDBF09942A8839884888DC
S1130EB05F846E847D848C849B84AA84B984C88472
S1130EC0DF80EE80FD800C811B81AA81B981CE0F69
S1130ED0D11D0FB6F894DEBF0FBECDBFED0108954E
S1070EE0F894FFCFB0
S1130EE41F001C001F001E001F001E001F001F0007
S1130EF41E001F001E001F001E001D001E001D00FA
S1130F041E001D001E001D001E001D001E001D00ED
S1130F14F300F700FB00FF00030107010B01253078
S1130F2432783A253032783A2530327800504D0000
S1130F34414D00414C3A20253032642F253032642F
S1130F442F25303264202573005472756F63205446
S1130F5465742020202020202020202000444C3AA6
S1130F6420253032782F253032782F2530327820DE
S1130F7425730053756E004D6F6E005475650057EC
S1130F846564005468750046726900536174000016
S9030000FC
